:020000040800F2
:1000000068060020010100081D160008C312000840
:10001000D1130008710E000801260008000000003E
:10002000000000000000000000000000FD1C0008AF
:10003000270F000800000000851B0008111E0008A3
:100040001B0100081B0100081B0100081B01000820
:100050001B0100081B0100081B0100081B01000810
:100060001B0100081B0100081B0100081B01000800
:100070001B0100081B0100081B0100081B010008F0
:100080001B0100081B0100081B0100081B010008E0
:100090001B0100081B0100081B0100081B010008D0
:1000A0001B0100081B0100081B0100081B010008C0
:1000B0001B0100081B0100081B0100081B010008B0
:1000C0001B0100081B0100081B0100081B010008A0
:1000D0001B010008ED2200081B0100081B0100089D
:1000E0001B0100081B0100081B010008DFF80CD0F1
:1000F00000F0DCFB00480047E538000868060020F7
:100100000648804706480047FEE7FEE7FEE7FEE7B1
:10011000FEE7FEE7FEE7FEE7FEE7FEE77D1E0008DE
:10012000ED000008D2B201E000F8012B491EFBD21D
:1001300070470022F6E710B513460A4604461946F2
:10014000FFF7F0FF204610BDF0B480EA0102D40FA3
:100150004200B2EB410F02D20246084611464A0065
:1001600042D0C30DDDB2C1F3C752AD1A202D35DA2E
:10017000C1F3160141F4000204B15242C5F1200658
:1001800002FA06F12A411044B3EBD05F23D0C4B188
:10019000012DA0EBC35009DCF0BC4FF0004202EA95
:1001A000C352DBB200F5000000F06FBA400000F16E
:1001B000807000EBC350A0F1807040EAD17049001C
:1001C00009E0490841EAC071A0EBC35000F5000006
:1001D000400800EBC350F0BC00F04EBA614201226F
:1001E00002EB4101001BF6E7F0BC704781F00041D3
:1001F000AAE780F00040A7E780EA010210B502F00C
:100200000043400022D04A001FD0010E01EB1261D2
:10021000C0F35600C2F3560240F4000042F400025C
:10022000A0FB022000047F39140400D0401C50EAD7
:10023000124001D44000491EC2B20C0604EBD0109B
:10024000401C4008802A02D003E0002010BD20F0AE
:100250000100002900DA0020184310BD30B480EA04
:10026000010202F0004530F0004221F0004013D0BE
:1002700090B1C30DD40DC2F31601C0F31600E41AF9
:1002800041F4000140F400027D34914201D3641C2A
:1002900000E04900002C02DA30BC002070474FF427
:1002A00000000023914201D3891A034340084FEA1A
:1002B0004101F7D151B1914202D14FF0004105E027
:1002C00002D24FF0010101E06FF0010103EBC450D5
:1002D000284430BC00F0D0B92DE9FE4F804681EAB9
:1002E0000300C00F0C46009021F0004123F00045B0
:1002F000B8EB0200A94105D24046214690461C4673
:100300000B46024623F00040104347D0270DC7F3A9
:100310000A00C3F30A510290401A019040286BDA98
:10032000C3F3130040F4801B0098924620B10023D1
:10033000D2EB030A63EB0B0B01985946C0F1400264
:10034000504600F078F906460D4650465946019A47
:1003500000F080F910EB08006141002487EA115297
:1003600084EAE7731A4340D0009A62B3019A012AE3
:100370004FEA075215DC001B61EB02014FF000420F
:1003800002EA0752CDE90042001C41F580113246D5
:100390002B4600F0B7F903B0BDE8F08F4046214688
:1003A000F9E7001B61EB0201001C41F58013001806
:1003B0005B412018A2F5001747EB030140EAD57016
:1003C000B6196D4111E06D084FEA360645EAC07571
:1003D0004FEA0752001B61EB0201001C41F580113E
:1003E00049084FEA30000019514132462B4603B00C
:1003F000BDE8F04F00F077B90098012240000023DB
:10040000D0EB020263EBE073009821464FEAE07400
:10041000B8EB000061EB0401E9E783F000435BE720
:1004200081F0004158E72DE9FE4F81EA030404F012
:10043000004421F0004100944FF0000B23F00043F2
:1004400050EA01045ED052EA03045BD0C3F30A54BD
:10045000C1F30A552C44A4F2F3340194A0FB0254D6
:10046000C1F3130141F48011C3F3130343F4801368
:1004700001FB024400FB034E840A970A44EA8154BC
:1004800047EA8357A4FB076802958D0A05FB078599
:100490004FEA932C04FB0C542705029D4FEA0658A3
:1004A00047EA1637B5EB08056EEB070C870E920E80
:1004B00047EA811742EA8312A7FB0201B6EB0B0160
:1004C00064EB00042B0D43EA0C335E1844EB1C5024
:1004D000DA465146E7FB0201C5F313044FEA0B333A
:1004E00043EA14534FEA0432019C43EA0603A4F1A1
:1004F0000C040294009CCDE900B400F003F903B0B1
:10050000BDE8F08F00200146F9E7C10F80EAE070F6
:100510000844CA079623002100F0B7B800F0004253
:1005200020F00040C10DC0F3160040F400007F2908
:1005300001DA00207047962903DCC1F19601C8401A
:1005400001E096398840002AF4D04042704700F01C
:10055000004230F000400AD0C10D01F56071C0F3D7
:10056000160042EA0151C2084007114370470020BB
:100570000146704701F0004330B421F0004150EAD9
:10058000010206D00A0DA2F56072C1F31301002A20
:1005900002DC30BC00207047440F44EAC104C100B3
:1005A000E01830BC00EBC25000F066B8002801DB58
:1005B000C0F10040002901DBC1F1004181427047D8
:1005C000002801DBC0F10040002901DBC1F100413E
:1005D000884270472DE9F05F0546002092469B4611
:1005E00088460646814640241BE028464146474649
:1005F000224600F06DF953465A46C01A914110D375
:1006000011461846224600F016F82D1A67EB01082D
:100610004F4622460120002100F00DF817EB00099B
:100620004E41201EA4F10104DFDC484631462A4633
:100630004346BDE8F09F202A04DB203A00FA02F18D
:10064000002070479140C2F1200320FA03F31943C0
:1006500090407047202A06DBCB17203A41FA02F07F
:1006600043EAE07306E041FA02F3D040C2F120020F
:1006700091400843194670470029A8BF7047401CA5
:10068000490008BF20F00100704710B4B0FA80FCA8
:1006900000FA0CF050EA010404BF10BC704749B1E5
:1006A000CCF1200421FA04F411FA0CF118BF012155
:1006B00021430843A3EB0C01CB1D4FEA00614FEA35
:1006C000102042BF002010BC704700EBC350104404
:1006D0000029A4BF10BC7047401C490008BF20F08F
:1006E000010010BC704710B5141E73F1000408DA45
:1006F000401C41F1000192185B411A4301D120F0E6
:10070000010010BD2DE9F04D92469B4611B1B1FAA2
:1007100081F202E0B0FA80F220329046FFF78BFFC0
:1007200004460F4640EA0A0041EA0B0153465A4686
:10073000084313D0114653EA010019D0C8F1400212
:10074000504600F0C5F805460E465046594642460A
:10075000FFF771FF084305D0012004E02046394629
:10076000BDE8F08D0020054346EAE0762C43374390
:100770000A986305E40AA0EB08000022FD0A44EA97
:1007800047540A3002D500200146E9E70105101957
:100790006941DDE9084500196941BDE8F04DA2E76E
:1007A0002DE9F04D81EA030404F0004B21F00045EF
:1007B00014464FF0000A23F0004150EA050220D011
:1007C00054EA01021DD0C5F30A570246C5F31303CC
:1007D000C1F31300C1F30A5640F4801543F48013AB
:1007E000A7EB0608101BD64608F2FD3873EB050090
:1007F00002D308F1010801E092185B41B8F1000F43
:1008000003DA00200146BDE8F08D00204FF480118E
:10081000064684460EE0171B73EB050705D3121B33
:1008200063EB050306434CEA010C49084FEA30002C
:1008300092185B4150EA0107EDD152EA030012D051
:1008400082EA040083EA0501084305D0101BAB418E
:1008500006D20122002306E000224FF0004302E00E
:100860006FF0010253101AEB06004CEB085110EB2D
:100870000A0041EB0B01BDE8F04DFFF734BF70B546
:1008800021F0004303430CD0C1F30A550024D5EBFB
:10089000040564EB0403D617AD1AB34102DB002054
:1008A000014670BD201841EB025170BD064C074D4A
:1008B00006E0E06840F0010394E807009847103430
:1008C000AC42F6D3FFF716FCD0410008F041000817
:1008D000202A04DB203A21FA02F00021704721FA95
:1008E00002F3D040C2F120029140084319467047FC
:1008F000420005D0C0F3C7525242914201DC0020B1
:10090000704700EBC15070472DE9F04D00231A46A7
:100910001B1A8A4103DB00200146BDE8F08DC1F3BC
:100920000A52C1F3130141F480154FF0000BD107B7
:1009300002D100186D41521E0027044640F2FF11FB
:10094000384601EB620A3E468046024600204FF4DC
:100950008011FFF7BDFFC2197141BB1846EB0100C2
:10096000B4EB030C75EB000C04D3E41A65EB000543
:1009700017460E46241908F101006D4180463428BF
:10098000E3DDF91946EB0600091BA84103D24FF03D
:10099000FF32134601E0002213461BEB070046EB33
:1009A0000A51BDE8F04DFFF79EBE00002DE9F0476B
:1009B00000249E48007810B101287DD10FE09C48AA
:1009C000007801280AD199490870002099490880C7
:1009D000994908809949088099490880C6E0994852
:1009E0000088A0F57A7004B29749C8699749FFF763
:1009F000DDFD01D2954809E09349C8699449FFF7A4
:100A0000DFFD01D2924801E08F48C06906462046CA
:100A1000FFF77BFD07463146FFF796FB0546FFF7DC
:100A20007DFD04B2002C01DA002006E0B4F5617F00
:100A300002DD4FF4617000E0204604467D480480EA
:100A40007D4804807D4804807D480480814AD169C6
:100A5000814AD069FFF778FB80468048C1694046EB
:100A6000FFF772FB06467648B0F90000FFF74DFD30
:100A700007463146FFF768FB0546FFF74FFD00B21A
:100A80006F490880734AD169734AD069FFF7AEFB9A
:100A900080467248C1694046FFF7A8FB0646674892
:100AA000B0F90000FFF731FD07463146FFF74CFB78
:100AB0000546FFF733FD00E057E000B25F490880CC
:100AC0006548C06980F000486248C1694046FFF748
:100AD0008DFB07466148C1693846FFF735FB06467E
:100AE0005548B0F90000FFF710FD81463146FFF789
:100AF0002BFB0546FFF712FD00B24F490880564810
:100B0000C06980F000485348C1694046FFF71CFBAC
:100B100007465248C1693846FFF768FB0646454814
:100B2000B0F90000FFF7F1FC81463146FFF70CFBFE
:100B30000546FFF7F3FC00B23E4908803C480078C8
:100B400010B90020394908703E48B0F9000040F261
:100B5000F231884208DC0020364908803649088096
:100B6000364908803649088000E000BF00BF34489D
:100B7000B0F90000002801DA00200BE03048B0F99D
:100B80000000B0F57A7F02DD4FF47A7002E02C4865
:100B9000B0F9000081B2324801F051FB2748B0F9AA
:100BA0000000002801DA00200BE02448B0F9000022
:100BB000B0F57A7F02DD4FF47A7002E01F48B0F999
:100BC000000081B2264801F03AFB1B48B0F9000052
:100BD000002801DA00200BE01748B0F90000B0F55A
:100BE0007A7F02DD4FF47A7002E01348B0F900001A
:100BF00081B21B4801F023FB0E48B0F90000002829
:100C000001DA00200BE00B48B0F90000B0F57A7F64
:100C100002DD4FF47A7002E00648B0F9000081B2BC
:100C20000F4801F00CFBBDE8F08700008D000020AC
:100C3000600000208A00002088000020860000203C
:100C4000840000201E000020FC010020000048C39A
:100C5000000048437C0100203C010020BC01002032
:100C60000004004070B5174C1749B1F90610A1F205
:100C7000DC50FFF74AFC05462146FFF7BDFA134951
:100C800008611149B1F90410A1F2DC50FFF73DFCF5
:100C900005462146FFF7B0FA0D4908610A49B1F946
:100CA0000210A1F2DC50FFF730FC05462146600738
:100CB000FFF7A2FA06462946FFF79EFA05490861A2
:100CC00070BD00000AD7233D1E0000201C0100203B
:100CD0005C0100209C0100201B481C49086000208A
:100CE00048601B4888601B481B490860002048601A
:100CF00088601A481A4908600020486019488860CE
:100D00001448194908600020486088604FF080400E
:100D1000164908600020486088604FF04040144940
:100D2000086000204860886012481349086000206D
:100D300048600C4888600F481049086000204860EF
:100D40000848886070470000000040403C010020D7
:100D50007B14AE3D0000E0C01C010020000040C03C
:100D60007C0100207B14AEBD5C010020BC01002092
:100D70009C0100209A9999BFFC010020DC01002011
:100D800070B504462E48007810B1012854D10AE00D
:100D90002C480078012805D12949087006212A48E5
:100DA00000F077F849E0294840682949C860274899
:100DB00000682849C860254880682749C8602749D5
:100DC000B1F90800FFF7A1FB054625480168284650
:100DD000FFF712FA2349C8602049B1F90600FFF76E
:100DE00094FB05461E4801682846FFF705FA1E4990
:100DF000C8601A49B1F90A00FFF787FB0546184891
:100E000001682846FFF7F8F91849C86022461549D5
:100E10000F4800F02FF8224613490E4800F02AF838
:100E2000224612490C4800F025F80648007810B90F
:100E300000200349087000E000BF00BF70BD000043
:100E40008C00002060000020640000204002002090
:100E50001C0100205C0100209C01002034020020C5
:100E60006C3B00083C0100207C010020BC010020FC
:100E700000BFFEE770B505460C46164631462846CB
:100E800000F01AF8E86920613146204600F014F8B5
:100E900070BD10B5024600200BE0002352F8204040
:100EA000636152F82040A36152F82040E361431C83
:100EB000D8B28842F1DB10BD2DE9F05F04460E4642
:100EC00000250027D4E90301FFF790F905463146D4
:100ED0002846FFF791F980466169FFF735F96061AF
:100EE0002846A169FFF782F980463146FFF7B6F937
:100EF00007463946A068FFF77FF981466169606857
:100F0000FFF77AF9824629462068FFF775F983468C
:100F10005146FFF719F980464946FFF715F9E06198
:100F2000A561BDE8F09F704700B5034603E04FF4AC
:100F30007A7000F005F8181EA3F10103F7D100BD87
:100F400000EBC001C9004FF0E02251610021916126
:100F50000521116100BF4FF0E021096901F48031E2
:100F60000029F8D004214FF0E022116170472DE9EB
:100F7000F04102460025002600200023002400271F
:100F800091F803C00CF00F0591F803C00CF0100CA1
:100F9000BCF1000F03D091F802C04CEA050591F8AE
:100FA00000C0BCF1000F31D0146800202BE04FF0DE
:100FB000010C0CFA00F3B1F800C00CEA03069E42E3
:100FC00020D183004FF00F0C0CFA03F7BC4305FA55
:100FD00003FC4CEA040491F803C0BCF1280F06D1CD
:100FE0004FF0010C0CFA00FCC2F814C00AE091F8B2
:100FF00003C0BCF1480F05D14FF0010C0CFA00FC06
:10100000C2F810C0401C0828D1D31460B1F800C049
:10101000BCF1FF0F34DD546800202EE000F1080C15
:101020004FF0010808FA0CF3B1F800C00CEA03060F
:101030009E4221D183004FF00F0C0CFA03F7BC4302
:1010400005FA03FC4CEA040491F803C0BCF1280F34
:1010500005D100F1080C08FA0CF8C2F8148091F8D8
:1010600003C0BCF1480F07D100F1080C4FF0010894
:1010700008FA0CF8C2F81080401C0828CED354603F
:10108000BDE8F081F0B50A460023002400210025C8
:1010900000F00046B6F1004F02D11D4EF16901E0AB
:1010A0001B4E7168C0F3034583B200F44016B6F5D9
:1010B000401F08D121F07061154E766826F07066E9
:1010C000134F7E6012E000F48016B6F5801F06D143
:1010D000032606FA05F4A14341F0706106E0460DCF
:1010E000360103FA06F6B14341F0706122B1460DB4
:1010F000360103FA06F6314300F00046B6F1004F20
:1011000002D1034EF16101E0014E7160F0BD0000BB
:10111000000001400246002093680B400BB1012003
:1011200000E000207047016170470AB1016100E0F2
:1011300041617047F0B58BB06FF0040605271E259E
:10114000002009900A9007900890182101A8FEF746
:10115000F0FF44E000BF0220FFF7E6FE00F03AF99E
:101160004348C088BDF82410401A00B2ADF81C00F6
:101170003F480089BDF82610401A00B2ADF81E00A5
:101180003B484089BDF82810401A00B2ADF8200055
:101190003748C088ADF8240035480089ADF82600EE
:1011A00033484089ADF82800BDF91C0010F1050F47
:1011B000D1DBBDF91C000528CDDCBDF91E0010F106
:1011C000050FC8DBBDF91E000528C4DCBDF92000F1
:1011D00010F1050FBFDBBDF920000528BBDC281E80
:1011E000A5F10101CDB2B5D100242EE00220FFF718
:1011F0009BFE00F0EFF8642C25DB1D49B1F90010CF
:101200000198084401901A49B1F902100298084463
:1012100002901748B0F90400A0F5804003990844F3
:1012200003901349B1F9061004980844049010493A
:10123000B1F908100598084405900D49B1F90A1054
:10124000069808440690601C84B2B4F5B27FCDDBEA
:10125000002009E001A951F82010091209B2054A3D
:1012600022F81010411CC8B20628F3DB0BB0F0BD09
:10127000340200204C02002010B57021002000F044
:1012800009F82021012000F005F80021022000F0DB
:1012900001F810BD70B505460C4600F089F93C20F8
:1012A00000F071F900F03AF9284600F06CF900F00E
:1012B00035F9204600F067F900F030F900F086F9C2
:1012C00070BD00BFFEE7000008B50121102000F04E
:1012D0006BFC4FF40050ADF8000010208DF80300B7
:1012E00003208DF8020069460148FFF740FE08BD63
:1012F0000010014010B500F0E7F801216B2000F06C
:1013000050F800216C2000F04CF80F21192000F05B
:1013100048F806211A2000F044F818211B2000F09C
:1013200040F800211C2000F03CF800F001F810BD4E
:1013300010B500216A2000F034F80221372000F0B7
:1013400030F810BD2DE9F04107460E46154600F075
:101350002FF9D02000F017F900F0E0F8384600F03F
:1013600012F900F0DBF800F023F9D12000F00BF9BE
:1013700000F0D4F800240EE000F0DFF83055681ECD
:10138000A04203D1012000F0F2F802E0002000F0BA
:10139000EEF8601C84B2AC42EEDB00F017F9BDE859
:1013A000F08170B505460C4600F002F9D02000F03F
:1013B000EAF800F0B3F8284600F0E5F800F0AEF8DF
:1013C000204600F0E0F800F0A9F800F0FFF870BD4A
:1013D00000BFFEE72DE9F04786B0062203A93B20B7
:1013E000FFF7B0FF06220DF112014320FFF7AAFF1D
:1013F000002457E0012000EB440003A9085C11F829
:10140000141040EA01202A4931F81410401A00B2A1
:101410002DF81400032C1ADA3DF91400FFF775F8C3
:10142000054604EB4401234A02EBC100294602F0C1
:101430002DFA04EB44011F4A02EBC1018868FFF753
:101440006DF800B21C49096821F8140028E0E01E7C
:10145000C5B2DFF868803DF91400FFF756F8824600
:101460004146FEF7C9FE0746154951F825001549C2
:10147000FEF7C2FE81463946FEF766FE0646FFF7D6
:101480004DF800B20C49096821F814000A490968AE
:1014900031F91400FFF739F8094941F8250000BF78
:1014A000601CC4B2062CA5DB06B0BDE8F0870000C6
:1014B0004C02002094000020900000209A99993E50
:1014C000580200203333333F08B50121082000F0D3
:1014D0006BFB14208DF803004FF44060ADF8000062
:1014E00003208DF8020069460448FFF740FD4FF4E1
:1014F00040610248FFF717FE08BD0000000C0140E4
:1015000010B54FF400610448FFF704FE04460A20BA
:10151000FFF716FD204610BD000C014010B501205C
:1015200000F06EF8012000F05DF8FFF7E9FF0446D7
:10153000002000F057F8204610BD70B500250120AE
:1015400000F05EF800240EE0012000F04BF8FFF7F9
:10155000D7FF012802D1802020410543002000F060
:1015600041F8601CC4B2082CEEDB284670BD10B5F3
:101570000446204600F044F8012000F033F8002033
:1015800000F030F810BD70B5054600240DE0802154
:10159000214101EA050000F033F8012000F022F8B3
:1015A000002000F01FF8601CC4B2082CEFDB70BDF7
:1015B00010B5012000F024F8012000F013F80020FD
:1015C00000F01EF8002000F00DF810BD10B500204E
:1015D00000F016F8012000F005F8012000F010F8E6
:1015E00010BD000010B5044622464FF48061034848
:1015F000FFF79BFD0A20FFF7A3FC10BD000C014084
:1016000010B5044622464FF400610348FFF78DFDF4
:101610000A20FFF795FC10BD000C0140704708B58B
:101620004FF4A06000F046F825208DF8000001205E
:101630008DF801008DF802008DF80300684600F077
:1016400001F808BD70B5002100230F22C47804B34F
:10165000154C246804F4E064C4F5E064210AC1F187
:101660000403CA40447804FA03F184781440214307
:1016700009010E4C0678A155047804F01F050124D9
:10168000AC4005786D11AD0005F1E025C5F80041CD
:1016900009E0047804F01F050124AC40044D0678ED
:1016A000761145F8264070BD0CED00E000E400E046
:1016B00080E100E002490143024A116070470000E6
:1016C0000000FA050CED00E070B500240EE00021EA
:1016D000204600F0F0F8002504E0002000F079F941
:1016E000681CC5B2802DF8DB601CC4B2082CEEDB90
:1016F00070BD000008B50121082000F055FA142043
:101700008DF8030003208DF802004FF48070ADF8CF
:10171000000069460A48FFF72AFC4FF40070ADF854
:10172000000069460648FFF722FC01221102044826
:10173000FFF7FBFC012251020148FFF7F6FC08BD50
:10174000000C014070B50546002415E080202041C2
:1017500000EA05024FF400710E48FFF7E6FC012293
:1017600011020C48FFF7E1FC00224FF48071094898
:10177000FFF7DBFC601CC4B2082CE7DB012211027E
:101780000448FFF7D2FC00224FF480710148FFF7B4
:10179000CCFC70BD000C014010B5012251020A487A
:1017A000FFF7C3FC012211020748FFF7BEFC00222D
:1017B0004FF400710448FFF7B8FC00224FF4807129
:1017C0000148FFF7B2FC10BD000C014010B500222B
:1017D0004FF400710648FFF7A8FC012211020448EB
:1017E000FFF7A3FC012251020148FFF79EFC10BD48
:1017F000000C014070B5002406E0002500E06D1CDF
:10180000B5F57A7FFBD3641CB4F57A7FF5D3FFF787
:1018100071FFAE2000F0CDF8D52000F0CAF880208E
:1018200000F0C7F8A82000F0C4F83F2000F0C1F88D
:10183000D32000F0BEF8002000F0BBF8402000F0FC
:10184000B8F8A12000F0B5F8C82000F0B2F8DA200E
:1018500000F0AFF8122000F0ACF8812000F0A9F8F9
:10186000CF2000F0A6F8D92000F0A3F8F12000F076
:10187000A0F8DB2000F09DF8302000F09AF8A420BA
:1018800000F097F8A62000F094F88D2000F091F871
:10189000142000F08EF8AF2000F08BF8FFF714FF53
:1018A00070BD10B50246012000E050430B1EA1F1AF
:1018B0000101FAD110BD70B505460C4645F0B000E7
:1018C00000F077F8102141EA141000F072F804F0EB
:1018D0000F0000F06EF870BD2DE9F04105460E4690
:1018E0001746721ED206110E6A1E5206100EFFF720
:1018F000E2FF002409E0A7F12001134A02EB0111E5
:10190000085D00F066F8601CC4B2082CF3DB721EA0
:10191000D206110E6A1E012303EB4202D0B2FFF77A
:10192000CAFF00240BE0A7F12001074A02EB0112D5
:1019300004F10801505C00F04CF8601CC4B2082CA3
:10194000F1DBBDE8F08100008C3B00082DE9F04799
:101950008146884615461E46002D06DB2B22414651
:101960004846FFF7B9FF2F4605E02D22414648467D
:10197000FFF7B2FF6F42002417E0301B411E0A2020
:10198000FFF78FFFB7FBF0F00A21B0FBF1F201FB8C
:10199000120000F1300A08EB0400401CC1B25246AC
:1019A0004846FFF799FF601CC4B2B442E5DBBDE8CE
:1019B000F08710B50446FFF7EFFE7820FFF7C2FE70
:1019C0000020FFF7BFFE2046FFF7BCFEFFF7FEFE3C
:1019D00010BD10B50446FFF7DFFE7820FFF7B2FE1A
:1019E0004020FFF7AFFE2046FFF7ACFEFFF7EEFE0C
:1019F00010BD000008B54020ADF8000003208DF8B0
:101A0000020018208DF8030069461548FFF7AFFA69
:101A10008020ADF8000003208DF8020018208DF81A
:101A2000030069460E48FFF7A2FA0120ADF8000056
:101A300003208DF8020018208DF80300694609483C
:101A4000FFF795FA0220ADF8000003208DF80200A0
:101A500018208DF8030069460248FFF788FA08BD90
:101A600000080140000C014010B500F019F8FFF724
:101A7000C1FF00F023F800F061FA0021074800F0F0
:101A8000DAFB0021054800F0D8FB0021034800F0F4
:101A9000D6FB0021014800F0D4FB10BD000400403B
:101AA00010B50121042000F07FF80121082000F08A
:101AB0007BF80121022000F067F810BD00B587B067
:101AC00000212E48FFF7DEFA4FF4E150ADF8040094
:101AD0000020ADF80000ADF80600ADF80200694640
:101AE000274800F0B1FB0121254800F03CFA6020B6
:101AF000ADF80C000120ADF80E000020ADF8140088
:101B000003A91F4800F03CFA08211D4800F084FAA0
:101B10006020ADF80C000120ADF80E000020ADF8FB
:101B2000140003A9164800F081FA0821144800F0B7
:101B3000CFFA6020ADF80C000120ADF80E000020B7
:101B4000ADF8140003A90E4800F0D0FA08210C48A3
:101B500000F01CFB6020ADF80C000120ADF80E0079
:101B60000020ADF8140003A9054800F019FB082176
:101B7000034800F053FB07B000BD000000081A0046
:101B8000000400407047000029B1064AD2690243B0
:101B9000044BDA6104E0034AD2698243014BDA6103
:101BA000704700000010024029B1064A92690243C2
:101BB000044B9A6104E0034A92698243014B9A61A3
:101BC000704700000010024030B5002100220024C0
:101BD00000232D4D6D6805F00C0121B1042905D0BD
:101BE000082923D105E0294D056022E0274D056035
:101BF0001FE0254D6D6805F47012234D6D6805F4E6
:101C00008034022505EB92421CB9214D55430560F5
:101C10000BE01D4D6D6805F400351DB11C4D55439D
:101C2000056002E0194D5543056002E0174D05605F
:101C300000BF00BF144D6D6805F0F0010909154D96
:101C40006B5C0568DD4045600F4D6D6805F4E06133
:101C5000090A104D6B5C4568DD4085600A4D6D6872
:101C600005F46051C90A0B4D6B5C4568DD40C560E9
:101C7000054D6D6805F44041890B074D6B5CC568E7
:101C8000B5FBF3F5056130BD0010024000127A008B
:101C900000093D00000000201000002038B5044677
:101CA0000C480078A8B172B60B4801682160406802
:101CB000606000200749087062B6B4F90600009021
:101CC000B4F90430B4F90220B4F9001003A000F014
:101CD00099FC38BD1D000020140000205448523AE1
:101CE0002564205941573A256420524F4C3A2564C7
:101CF000205049543A25640A00000000704710B58E
:101D000000F002F810BD00000CB50020019000901A
:101D10003348006840F480303149086000BF3048E3
:101D2000006800F4003000900198401C0190009879
:101D300018B90198B0F5A06FF1D12948006800F4F6
:101D4000003010B10120009001E0002000900098C8
:101D5000012843D12348006840F010002149086061
:101D60000846006820F0030008600846006840F05C
:101D7000020008601A4840681949486008464068EF
:101D800048600846406840F4806048600846406803
:101D900020F47C1048600846406840F4E810486031
:101DA0000846006840F08070086000BF0C4800687A
:101DB00000F000700028F9D00948406820F00300C6
:101DC000074948600846406840F00200486000BF8C
:101DD0000348406800F00C000828F9D10CBD000051
:101DE0000010024000200240042808D14FF0E021FA
:101DF000096941F004014FF0E022116107E04FF062
:101E0000E021096921F004014FF0E02211617047DF
:101E100010B510480068401C0E490860084600686C
:101E2000B0F57A7F09D10C48C06880F400500A49A7
:101E3000C8600AA000F0CEFB0AE006480068B0F5D2
:101E4000FA6F05D10AA000F0C5FB00200149086027
:101E500010BD0000280000200010014041542B4319
:101E6000495053454E443D302C32300D0A0000009D
:101E700031323334353637383930000010B5134835
:101E8000006840F0010011490860084640681049A8
:101E900008400E494860084600680E4908400B4952
:101EA00008600846006820F4802008600846406802
:101EB00020F4FE0048604FF41F008860FFF71FFF0A
:101EC0004FF000600449086010BD0000001002409F
:101ED0000000FFF8FFFFF6FE08ED00E070B50446D5
:101EE00004EBC400C100B1F1807F00D31DE021F0FC
:101EF0007F40401E4FF0E022506150170F22002813
:101F000007DA13071E0E0B4B00F00F052D1F5E5551
:101F100003E013071D0E084B1D5400BF00204FF0B7
:101F2000E02290610720106100BF0420FFF75CFFF2
:101F300070BD000018ED00E000E400E008B54FF4CB
:101F40004070FFF7B7FB1D208DF8000001208DF8D1
:101F5000010000208DF8020001208DF80300684682
:101F6000FFF770FB08BD21B1028842F00102028038
:101F700004E002884FF6FE731A40028070470000AA
:101F800070B5002400220023058C4FF6FE76354004
:101F90000584028C8388048B4FF68F752C40B51E08
:101FA0002C400D882C43751E2A400D892A434D88EC
:101FB0002A43144DA8420BD0134DA84208D0134D0C
:101FC000A84205D0124DA84202D0124DA84213D10A
:101FD0004FF6F7752A404D892A434FF6FB752A4084
:101FE0008D882A434FF6FF652B404FF6FF552B4057
:101FF0008D892B43CD892B4383800483CD888586AF
:10200000028470BD002C01400034014000400140BA
:1020100000440140004801400A460021018B4FF670
:10202000F7731940114301837047000070B5002415
:1020300000220023058C4FF6EF7635400584028C94
:102040008388048B48F6FF752C404FF6FF452C40E3
:102050000D884FF6FF7606EA05252C434FF6DF750F
:102060002A400D8906EA05152A434D8806EA05151A
:102070002A43154DA84202D0144DA8421DD14FF657
:102080007F752A404D894FF6FF7606EA05152A43EB
:102090004FF6BF752A408D8806EA05152A434FF68C
:1020A000FF352B404FF2FF752B408D8906EA8505E1
:1020B0002B43CD8906EA85052B4383800483CD8895
:1020C0000587028470BD0000002C014000340140EF
:1020D0000A460021018B4FF2FF7319404FF6FF7340
:1020E00003EA0223194301837047000070B50024FE
:1020F00000220023058C4FF6FF6635400584028CD4
:102100008388848B4FF68F752C404FF6FC752C40DE
:102110000D882C434FF6FF552A400D894FF6FF7668
:1021200006EA05252A434D8806EA05252A43154D6A
:10213000A84202D0144DA8421DD14FF2FF752A408B
:102140004D894FF6FF7606EA05252A434FF6FF35FF
:102150002A408D8806EA05252A434EF6FF752B4056
:102160004DF6FF752B408D8906EA05152B43CD8969
:1021700006EA05152B4383808483CD8885870284F6
:1021800070BD0000002C0140003401400A460021CF
:10219000818B4FF6F773194011438183704700001C
:1021A00070B5002200230024058C4EF6FF763540E2
:1021B0000584038C8488828B48F6FF752A404FF68D
:1021C000FF452A400D884FF6FF7606EA05252A438B
:1021D0004DF6FF752B400D8906EA05352B434D88DA
:1021E00006EA05352B430B4DA84202D00A4DA84202
:1021F00008D14BF6FF752C408D894FF6FF7606EA25
:1022000085152C4384808283CD88A0F840500384B8
:1022100070BD0000002C0140003401400A4600213E
:10222000818B4FF2FF7319404FF6FF7303EA0223CD
:102230001943818370478186704701877047818782
:102240007047A0F840107047002202881D4B98424A
:102250000ED01D4B98420BD0B0F1804F08D01B4BD5
:10226000984205D01A4B984202D01A4B984204D19A
:102270004FF68F731A404B881A43174B984207D07A
:10228000164B984204D04FF6FF431A40CB881A43AE
:1022900002808B8883850B8803850A4B98420BD07C
:1022A000094B984208D00E4B984205D00D4B9842EE
:1022B00002D00D4B984201D10B7A03860123838211
:1022C00070470000002C0140003401400004004031
:1022D00000080040000C00400010004000140040C6
:1022E00000400140004401400048014010B540F268
:1022F0002551184800F099F850B3164800F050F9ED
:10230000C4B20A2C03D014480078132816DB00202E
:102310001249114A1278885400BF04E00F49095C41
:102320000F4A1154401C0C4909788842F6DD0120FF
:102330000C49087000200849087008E00748064961
:102340000978445404480078401C0349087000BFD1
:1023500010BD0000003801402C000020E4000020E7
:10236000F80000202D00002021B1828942F40052A3
:10237000828104E082894DF6FF731A4082817047A2
:1023800000B585B001210420FFF70EFC0121880370
:10239000FFF70AFC4FF40070ADF8100018208DF81C
:1023A000130003208DF8120004A91748FEF7DFFD83
:1023B0004FF48060ADF8100004208DF8130004A9DC
:1023C0001148FEF7D4FD4FF4E13000900020ADF845
:1023D0000400ADF80600ADF80800ADF80C000C20C4
:1023E000ADF80A006946094800F06EF8FFF717F9E2
:1023F000012240F22551054800F041F8012103482F
:10240000FFF7B2FF05B000BD0008014000380140F1
:1024100002460020B1F5007F00D100BF13880B40B9
:102420000BB1012000E00020704770B50246002487
:1024300000230025002040F66A16B14200D100BFFB
:10244000C1F3421501F01F03012606FA03F3012D23
:1024500002D19689334006E0022D02D1168A33401C
:1024600001E0968A33400C12012606FA04F416881D
:10247000344013B10CB1012000E0002070BDF0B574
:102480000346002400260025002040F66A17B942C2
:1024900000D100BF1846C1F3421401F01F06012706
:1024A00007FA06F5012C01D10C3004E0022C01D111
:1024B000103000E014301AB107682F43076002E0C3
:1024C0000768AF430760F0BD2DE9F04786B00546C9
:1024D0000E460024A24600BFA1460027B08900B1E5
:1024E00000BF2F462C8A4CF6FF700440F08804434E
:1024F0002C82AC894EF6F3100440B0883189084331
:10250000718908430443AC81AC8A4FF6FF40044014
:10251000B0890443AC8201A8FFF756FB1F488742ED
:1025200002D1DDF810A001E0DDF80CA0A88900F4CC
:10253000004040B10AEBCA0000EB0A1031684900C4
:10254000B0FBF1F807E00AEBCA0000EB0A103168B3
:102550008900B0FBF1F86420B8FBF0F00401200919
:10256000642101FB1089A88900F4004040B13220A9
:1025700000EBC900B0FBF1F000F00700044308E0F5
:10258000322000EB09106421B0FBF1F000F00F00E5
:1025900004432C8106B0BDE8F087000000380140FC
:1025A00001468888C0F308007047C1F308028280A2
:1025B0007047000010B5044621460548FFF7F5FFB7
:1025C00000BF80210248FFF723FF0028F9D010BD8B
:1025D0000038014070B50446002500BF605DFFF77C
:1025E000E9FF6D1C605D0028F8D100BF4021034861
:1025F000FFF70EFF0028F9D070BD00000038014041
:1026000000BFFEE70FB4054B10B503A9044A0298BA
:1026100000F0C6F810BC5DF814FB0000D9300008CB
:10262000DC0000200FB4084B10B504A902AA0398DF
:1026300000F0B6F8044602A9002000F0E2FA2046B5
:1026400010BC5DF814FB0000032C0008490050EAA0
:10265000C12018BF04204A0D18BF40F0010040F20D
:10266000FF72B2EB515F08BF40F00200012808BFC3
:10267000052070474100080218BF04200A0E18BF49
:1026800040F001004FF07F4232EA010108BF40F004
:102690000200012808BF052070472DE9F0414F1EB8
:1026A00000EBC7010446D1E9000115461E4637F08C
:1026B00006020DD02A463346FDF7B5FE7F1E04EB19
:1026C000C703D3E90023FDF707FE37F00602F1D177
:1026D000022F25D0042F13D0062F18BFBDE8F0819C
:1026E0002A463346FDF79FFED4E90A23FDF7F4FDA1
:1026F0002A463346FDF797FED4E90823FDF7ECFDA3
:102700002A463346FDF78FFED4E90623FDF7E4FDA4
:102710002A463346FDF787FED4E90423FDF7DCFDA6
:102720002A463346FDF77FFED4E90223FDF7D4FDA8
:102730002A463346FDF777FED4E90023BDE8F04191
:10274000FDF7CABD0122FEF79AB8002213461046D3
:102750001146FEF725B80000024A00201107FEF7D7
:102760008EB8000001FDFFFFFDF7EEBC6FF05E01CB
:102770000807FEF7BDB802E008C8121F08C1002A0A
:10278000FAD170477047002001E001C1121F002AF2
:10279000FBD170470149086070470000E00000204D
:1027A0002DE9FF4F8DB00F460546002606E025288F
:1027B0000BD0DDE90F1290476D1C761C287800289D
:1027C000F5D111B03046BDE8F08F0024A246A146F5
:1027D0000122EC4900E0044315F8013F203B02FAD6
:1027E00003F00842F7D128782A2810D06FF02F0282
:1027F0002878A0F13001092914D80AEB8A0102EBEC
:10280000410144F0020400EB010A6D1CF0E701CF26
:102810005FEA000A03D544F40054CAF1000A44F008
:1028200002046D1C28782E2817D115F8010F44F0EA
:1028300004042A280ED06FF02F022878A0F130016E
:1028400009290AD809EB890102EB410100EB0109D2
:102850006D1CF2E757F8049B6D1C28786C280FD08C
:1028600006DC4C2817D068280DD06A2814D104E063
:10287000742810D07A280FD10DE044F400140AE037
:1028800044F4801401E044F440146978814202D198
:1028900004F580146D1C6D1C2A786E2A1FD00CDC88
:1028A000632A31D004DC002A8BD0582A11D1A3E04E
:1028B000642A68D0692A0CD165E0732A2ED004DC22
:1028C0006F2A73D0702A04D19BE0752A6FD0782AC2
:1028D0006ED01046DDE90F129047761C50E1C4F32C
:1028E0000250022806D0032809D0042801CF09D0BD
:1028F000066045E101CFF117C0E9006140E101CF79
:1029000006803DE106703BE117F8040B8DF80000EE
:1029100000208DF80100EB46012003E057F804BBCE
:102920004FF0FF3061074FF0000102D40DE008F1D5
:102930000101884649450FDA8045F8DB1BF808108D
:102940000029F4D108E008F1010188468142FADB50
:102950001BF808100029F6D1DDE90F23AAEB0800C7
:102960008146214600F036F9304400EB080604E0C9
:10297000DDE90F121BF8010B9047B8F10108F7D2FF
:1029800021464846F7E00A21C4F302534FF0000BFA
:102990000891022B04D001CFC117032B09D00AE004
:1029A000FF1D27F00707F7E8020108E032E01FE00B
:1029B00020E000B2C117042B01D140B2C117031EA1
:1029C00071F1000307DA4FF0000CD0EB0C006CEB58
:1029D00001012D2302E0230504D52B238DF824309B
:1029E000012303E0E30701D02023F7E7984658E0EE
:1029F0000A2110E010210EE010204FF0000B08908B
:102A00000CE010214FF0000B44F004044FF00809D3
:102A1000089103E008214FF0000B0891C4F3025322
:102A2000022B04D001CF0021032B06D006E0FF1DAE
:102A300027F00707F7E8020103E080B2042B00D17A
:102A4000C0B24FF0000823072BD5702A07D0DDF85D
:102A500020C08CF0100C5CEA0B0C05D00EE040237B
:102A60008DF82430012308E050EA010306D030231A
:102A70008DF824308DF8252002239846DDF820C0FB
:102A80008CF0080C5CEA0B0C0BD150EA010301D16D
:102A9000630706D530238DF824304FF00108A9F1E3
:102AA0000109582A04D038A20B9208AA0A920BE016
:102AB0003AA2F9E75B46089AFDF78CFD0B9B9B5CFD
:102AC0000A9A521E0A92137050EA0102F2D10A9831
:102AD000ADEB000000F1200B600702D524F4803438
:102AE00001E04FF00109D94502DDA9EB0B0000E040
:102AF000002000EB0B0141440890AAEB010AE0031F
:102B000006D4DDE90F232146504600F063F8064461
:102B10004FF0000908E009A911F80900DDE90F12DA
:102B2000904709F10109761CC145F4DBE0030CD59F
:102B3000DDE90F232146504600F04CF8064404E03E
:102B4000DDE90F1230209047761C0899481E089046
:102B50000029F5DC08E00A980A990078491C0A91D6
:102B6000DDE90F129047761CBBF10001ABF1010BC0
:102B7000F1DC21465046DDE90F2300F019F8064448
:102B80006D1C1BE6092801003031323334353637ED
:102B900038396162636465660000000030313233A9
:102BA0003435363738394142434445460000000049
:102BB0002DE9F041044600251E461746880404D43A
:102BC00005E039462020B0476D1C641EF9D5284623
:102BD000BDE8F0812DE9F041044600251E469046EF
:102BE000C80301D5302700E02027880404D505E07C
:102BF00041463846B0476D1C641EF9D52846BDE8ED
:102C0000F0810A68531C0B60107070472DE9F04D7D
:102C10008D4F21F0004A86B005460C46BA452ADBA6
:102C2000AAEB070028430AD08848824501DC1AD164
:102C3000CDB106B02846BDE8F04DFFF783BD844A0C
:102C4000844B2846FDF7EFFB07460E46824A834B2E
:102C500028462146FDF7E7FB06B03A463346BDE875
:102C6000F04DFDF739BB0120FFF794FD06B0BDE83C
:102C7000F04DFFF76ABD7A48824542DABAF1795FD2
:102C80000BDA2846FFF7E2FC042808BFFFF764FDD3
:102C9000284606B02146BDE8F08D2A460B46104670
:102CA000FDF7C1FB834602466E480E460B460621E1
:102CB0007844FFF7F2FC5A463346FDF7B4FB8046F2
:102CC00069488A465A46334604217844FFF7E5FCB2
:102CD0005A463346FDF7A7FB00223B46FDF7FCFAB8
:102CE00002460B4640465146FDF75AFD2A4623460A
:102CF000FDF799FB06B02A462346BDE8F04DFDF7E7
:102D0000EBBA284624F0004100223D463B46FDF741
:102D100087FB4FF0FF32FDF7B2FD064602465348EF
:102D20000F460B4606217844FFF7B7FC32463B4678
:102D3000FDF779FBCDE900014D4832463B460421C1
:102D40007844FFF7AAFC32463B46FDF76CFB0022B5
:102D50002B46FDF7C1FA834602913046394600F012
:102D6000DDFE804643480D46504517DCDDE9000195
:102D70005A46029BFDF714FD42462B46FDF753FBD6
:102D800042462B46FDF7A8FA0122FDF778FD304AAE
:102D9000304BFDF742FB304A304B4CE04FF0000A1D
:102DA00052460B464046FDF797FACDE903105246CE
:102DB0002B4610461946FDF736FB32463B46FDF7DB
:102DC0002FFBDDE90332FDF7EBFC06460F46DDE99C
:102DD00000015A46029BFDF7E3FC83460091012265
:102DE00030463946FDF74BFD194A1A4BFDF718FBE3
:102DF00006460F46012240462946FDF740FD5A4649
:102E0000009BFDF710FB32463B46FDF706FB0646EE
:102E10000F46012250462946FDF731FD0E4DDFF8E1
:102E200058802A464346FDF7FBFA32463B46FDF7FB
:102E3000F7FA2A464346FDF7F3FA002CD8BF81F093
:102E4000004106B0BDE8F08D0000F03F0000F07FCB
:102E5000075C143326A6913C182D4454FB21F93FFE
:102E60000000E03FCC140000E21400005614000003
:102E70006C1400003333EF3FFB21E93F2DE9F047AD
:102E80004FF0684202EB40030C460546B3F1654F34
:102E90003CBF02EB4102B2F1654F7CD2C0F3C75395
:102EA000C1F3C7529A1A1B2A06DD10F0004F14BF57
:102EB00076487748BDE8F08712F11A0F17DA11F05B
:102EC000004F06D010F0004F0CBF72487248BDE8AA
:102ED000F08721462846FDF7C1F90446FFF7CAFBF3
:102EE000042808BFFFF742FC2046BDE8F0874200F7
:102EF000B2EB410F25D910F0004F19BF674F684E54
:102F0000684F694E224685F0004415460A4680F017
:102F1000004110460A1A5200B2F1807F40D2484068
:102F20006249DFF88CA110F0004F18D04FF03F48F5
:102F30003846FDF75BF9074651463046FDF756F92E
:102F400017E011F0004F04BF00263746E2D010F022
:102F5000004F19BF574F584E584F594EDAE74FF0B0
:102F60007C583846FDF7F0F8074651463046FDF7E5
:102F7000EBF8064641462846FDF73EF92146FDF7A7
:102F8000E3F8824621464046FDF736F92946FDF72B
:102F900030F9514600E037E0FDF760F9044604E0FF
:102FA00021462846FDF75AF904460146FDF724F963
:102FB00080464449FDF720F94349FDF7C5F84146ED
:102FC000FDF71AF94149FDF7BFF84146FDF714F93D
:102FD0003F49FDF7B9F84146FDF70EF93D49FDF7C8
:102FE000B3F8054641462046FDF706F92946FDF7A8
:102FF00003F93146FDF7A8F82146FDF7A5F8394653
:10300000BDE8F047FDF7A0B84FF07F42B2EB400FAC
:1030100028BFB2EB410F03D2BDE8F047FFF7A4BBD6
:1030200040EA01035B0008BF44F0FF410AD0B2EB65
:10303000400F08BFB2EB410F06D125F0804024F0CD
:10304000804105460C4629E7B2EB400F12BF5FEA0C
:10305000410245F0FF4004F000413FF41FAF4A0039
:1030600092EA40033FF51AAF002AACBF4FF09F46EB
:103070004FF03E563146FDF7BFF805463146204633
:10308000FDF7BAF804462846214607E7DB0FC9BF1B
:10309000DB0FC93FDB0F4940DB0F49C00000C9BF50
:1030A00022AAFDB90000C93F22AAFD390060ED3E09
:1030B000C30ACE37000049C022AA7DBA00004940A9
:1030C00022AA7D3A2DAD65BD8FB8D53D0FB511BE95
:1030D00061C84C3EA8AAAABE70B504460D46E0B22F
:1030E000FFF768FA204670BD07B59CB04FF07C51E1
:1030F0001E98FDF781F80A90FE4880680690FD480A
:10310000006805900699FDF777F80890F948C068BF
:103110000690F848406805900699FDF76DF807900D
:103120000899FDF763F84FF080410990FDF764F8C6
:103130001990F048C0680690EE488068059006999E
:10314000FDF75AF80890EB4840680690E948006897
:1031500005900699FDF750F807900899FCF7F4FFE1
:103160004FF080410990FDF747F81A90E1488068D8
:103170000590E048806804900599FDF73DF80790B8
:10318000DC4840680590DB48406804900599FDF7ED
:1031900033F806900799FCF7D7FF4FF0804108906D
:1031A000FDF72AF84FF07E510990FDF722F81B90A9
:1031B000D148B0F904000490FDF7A7F90690CE4875
:1031C000B0F904000490FDF7A0F905900699FDF709
:1031D00013F80890C848B0F902000290FDF795F97D
:1031E0000490C548B0F902000290FDF78EF90390F3
:1031F0000499FDF701F80690BF48B0F9000002906D
:10320000FDF783F90490BC48B0F900000290FDF787
:103210007CF903900499FCF7EFFF05900699FCF701
:1032200093FF07900899FCF78FFF099000F006FBC9
:103230000B901C98B0F900000890FDF766F9099012
:103240000B99FCF7D9FF16901C98B0F90200089072
:10325000FDF75BF909900B99FCF7CEFF17901C98CE
:10326000B0F904000890FDF750F909900B99FCF7AC
:10327000C3FF18901A980790189806900799FCF7C2
:10328000BBFF09901B980790179806900799FCF7C9
:10329000B3FF08900999FCF7A9FF10901B980790BD
:1032A000169806900799FCF7A7FF099019980790C0
:1032B000189806900799FCF79FFF08900999FCF76A
:1032C00095FF119019980790179806900799FCF7A9
:1032D00093FF09901A980790169806900799FCF7A3
:1032E0008BFF08900999FCF781FF129010980890C5
:1032F000824801680898FCF77FFF099080480068C1
:10330000014608900998FCF71FFF7D490860119855
:1033100008907A4801680898FCF76EFF0990784891
:103320004068014608900998FCF70EFF7449486010
:1033300012980890714801680898FCF75DFF0990A1
:103340006F488068014608900998FCF7FDFE6C49BB
:1033500088601098014606906A480068FCF74CFFA8
:1033600008901C98B0F906000590FDF7CEF8664964
:103370000690FCF741FF07900899FCF7E5FE0990DD
:103380005F480068014608900998FCF7DDFE13903D
:103390001198014606905B480068FCF72DFF0890E5
:1033A0001C98B0F908000590FDF7AFF85649069053
:1033B000FCF722FF07900899FCF7C6FE09905048D9
:1033C0004068014608900998FCF7BEFE14901298D8
:1033D000014606904B480068FCF70EFF08901C98C9
:1033E000B0F90A000590FDF790F847490690FCF700
:1033F00003FF07900899FCF7A7FE099040488068F2
:10340000014608900998FCF79FFE159015980690C4
:103410003848C06805900699FCF7EEFE08901498AD
:1034200004903448806803900499FCF7E5FE069008
:103430003048406880F000400490139801460390A3
:103440000498FCF7D9FE05900699FCF7CFFE07908B
:103450000899FCF7CBFE09900A99FCF7CDFE0F9076
:10346000159806902348806805900699FCF7C4FEDD
:103470000890149804901F48C06803900499FCF7C2
:10348000BBFE0690139804901A48006803900499B4
:10349000FCF7B2FE05900699FCF7A8FE0790089984
:1034A000FCF752FE09900A99FCF7A6FE0E901598BB
:1034B00006901048406805900699FCF79DFE08901C
:1034C000149804900B48006803900499FCF794FE4C
:1034D0000690139804900748C06803900499FCF77D
:1034E0008BFE05900699FCF72FFE07900899FCF7D4
:1034F0007DFE0BE050000020340200204C00002034
:1035000010010020480000202E9E8B3A09900A9955
:10351000FCF772FE0D9015980690C2480068059061
:103520000699FCF769FE089014980490BD4840681D
:1035300003900499FCF760FE0690BA48806880F01A
:10354000004004901398014603900498FCF754FE41
:1035500005900699FCF7F8FD07900899FCF7F4FD33
:1035600009900A99FCF748FE0C90AE480068099053
:103570000F99FCF7E9FDAB490860084640680990DF
:103580000E99FCF7E1FDA74948600846806809905C
:103590000D99FCF7D9FDA34988600846C0680990D9
:1035A0000C99FCF7D1FD9F49C8600846C068069099
:1035B0000846C06805900699FCF71EFE08909948D9
:1035C000806804909748806803900499FCF714FE83
:1035D0000690944840680290924840680190029991
:1035E000FCF70AFE04908F48006802908D4800683E
:1035F00001900299FCF700FE03900499FCF7A4FDEA
:1036000005900699FCF7A0FD07900899FCF79CFD32
:10361000099000F013F90B908248006809900B990B
:10362000FCF7EAFD7F4908600846406809900B995D
:10363000FCF7E2FD7B4948600846806809900B99D9
:10364000FCF7DAFD774988600846C06809900B9955
:10365000FCF7D2FD7349C8600846406801460290F5
:103660004FF08040FCF7C8FD03906E48C0680146EB
:1036700002900398FCF7C0FD05906A480068014677
:1036800002904FF08040FCF7B7FD039065488068DA
:10369000014602900398FCF7AFFD04900599FCF7F2
:1036A000A5FD09905F480068014602904FF08040F8
:1036B000FCF7A2FD03905B48406801460290039826
:1036C000FCF79AFD059057488068014602904FF03C
:1036D0008040FCF791FD03905248C068014602907B
:1036E0000398FCF789FD04900599FCF72DFD0890DF
:1036F0004C488068014602904FF08040FCF77CFD0A
:10370000039048488068014602900398FCF774FDD6
:10371000059044484068014601904FF08040FCF716
:103720006BFD02903F484068014601900298FCF70B
:1037300063FD4FF07E510390FCF75BFD049005990B
:10374000FCF754FD07901C98B0F90A000490FCF7B0
:10375000DCFE35490590FCF74FFD06904FF07E5199
:103760000698FCF72DFF04D330490698FCF71EFF9E
:103770000DD21E990698FCF73FFD05901D988068B4
:10378000014604900598FCF7DFFC1D9988600998B4
:10379000FCF7DDFECDE90001FFF738FA4FF00052EB
:1037A000234BCDE90201FCF73EFECDE90401FCF715
:1037B000E1FE1D994860DDE90710FFF75FFB1D4939
:1037C0000590FCF719FD1D9908601C98B0F90400DC
:1037D0000290FCF79AFE03900799FCF70DFD059007
:1037E0001C98B0F902000090FCF78FFE0190089938
:1037F000FCF702FD03901C98B0F900000090FCF764
:1038000084FE01900999FCF7F7FC02900399FCF7FC
:103810009BFC04900599FCF797FC074908601FB0D2
:1038200000BD000050000020F6FF793D000080BF81
:10383000DCA54C40E12E6542440000202DE9F05FFC
:1038400004464FF07F594FF07C512046FCF7D4FCE2
:10385000824625462E460C48A0EB6606354629468C
:103860005046FCF7C9FC83462946FCF7C5FC804658
:103870004946FCF7BEFC07462946FCF7BDFC054659
:103880002846BDE8F09F0000DF59375F2DE9F04181
:1038900004460D4621692068FCF756FC60606169AA
:1038A0006068FCF751FC064631466068FCF7D6FCC0
:1038B000E0602846A168FCF799FC0746E168FCF740
:1038C0009BFC0646A168FCF73FFCA0604FF07E50D1
:1038D000E168FCF78BFC06466168FCF78DFC206014
:1038E000BDE8F0818CB0FDF7EFFC4FF47A70FEF785
:1038F000F5FAFEF745FD4FF47A70FDF715FB4FA082
:10390000FEF768FE4FF47A70FDF70EFB4FA0FEF74E
:1039100061FE4FF4FA70FDF707FBFDF76BFFFDF753
:10392000E9FC50A0FEF76EFEFDF704FC56A0FEF782
:1039300069FEFDF7FDFC4120FDF7F6FAFDF79CFC62
:10394000FEF792F8FDF7C8F976E0FDF743FD574A18
:1039500057495848FFF7C8FB55494868FCF7DEFD52
:1039600004460323224601210220FDF7EFFF5049C0
:103970000868FCF7D3FD04460323224601211846BC
:10398000FDF7E4FF4A498868FCF7C8FD04460323B5
:10399000224601210420FDF7D9FF0620FDF7C4FAD5
:1039A0004548007800282FD000204349087043A0E4
:1039B000FEF728FE002405E04348015D43A0FEF722
:1039C00021FE641C082CF7D31FA0FEF71BFE3E4807
:1039D00001680291406803903EA0FEF7FBFD4FF4A2
:1039E0007A70FDF7A1FABDF90800FEF7F3FDBDF905
:1039F0000E000090BDF90C30BDF90A20BDF9081089
:103A000039A0FEF7FFFD00BF3F48FEF747F93E48EB
:103A1000B0F90230B0F900203CA104A8FEF702FE84
:103A20000220FDF781FAFDF71DF9204D2846FDF72C
:103A3000A7F9FCF7BBFF00BF87E7000041542B4309
:103A400049504D55583D310D0A00000041542B435B
:103A500049505345525645523D312C383038380D77
:103A60000A0000003C3C3C3C3C3C3C3C3C6D7075DE
:103A700036303530BFAACABCD6B4D0D0D0A3D7BC5C
:103A80003E3E3E3E3E3E3E003E3E3E3E3E3E3E3E94
:103A90003E6D707536303530D0A3D7BCCDEAB3C992
:103AA0003C3C3C3C3C3C3C3C3C3C0000A69BC43B7E
:103AB00040020020340200202D00002052617720B7
:103AC00042797465733A2000F8000020253032589E
:103AD0002000000041542B43495053454E443D3093
:103AE0002C32300D0A0000005448523D2564205904
:103AF00041573D256420524F4C3D25642050495488
:103B00003D25640A000000001E0000205448523A7F
:103B10002564205941573A25640A00002DE9F041F7
:103B200006460F46FCF7F0FE041E0D4618BF0120A6
:103B3000284320F00040C0F17F6000F1E040C00F5A
:103B40000ED0301C18BF0120384320F00040C0F1D7
:103B50007F6000F1E040C00F04BF0120FEF71AFEB5
:103B600020462946BDE8F081E12E6542F6FF793D09
:103B70002E9E8B3A000000000000000000000000B4
:103B80000000803F0000803F0000803F00000000F8
:103B9000000000000000000000000000000000F82D
:103BA00000000000000000333000000000100C0690
:103BB000100C0600000000000000000040C078402B
:103BC000C0784000043F04043F040400007088FCF7
:103BD00008300000001820FF211E0000F008F0004F
:103BE000E018000000211C031E211E0000F00888C0
:103BF000700000001E2123241927211010160E002A
:103C0000000000000000000000000000000000E0D4
:103C100018040200000000071820400000020418E9
:103C2000E00000000040201807000000404080F045
:103C3000804040000202010F01020200000000F07B
:103C4000000000000101011F01010100000000004F
:103C50000000000080B070000000000000000000C4
:103C6000000000000001010101010101000000004D
:103C700000000000003030000000000000000000E4
:103C800080601804006018060100000000E01008C1
:103C90000810E000000F102020100F00001010F896
:103CA000000000000020203F2020000000700808D5
:103CB0000888700000302824222130000030088855
:103CC000884830000018202020110E000000C0207D
:103CD00010F8000000070424243F240000F808889E
:103CE000880808000019212020110E0000E010882B
:103CF00088180000000F112020110E00003808085D
:103D0000C83808000000003F00000000007088086C
:103D100008887000001C222121221C0000E01008ED
:103D20000810E0000000312222110F00000000C046
:103D3000C0000000000000303000000000000080E3
:103D400000000000000080600000000000008040D3
:103D500020100800000102040810200040404040EC
:103D6000404040000404040404040400000810203F
:103D70004080000000201008040201000070480884
:103D80000808F0000000003036010000C030C828EC
:103D9000E810E0000718272423140B000000C038A7
:103DA000E0000000203C23020227382008F8888821
:103DB00088700000203F202020110E00C03008082D
:103DC00008083800071820202010080008F8080804
:103DD0000810E000203F202020100F0008F88888FD
:103DE000E8081000203F20202320180008F88888C9
:103DF000E8081000203F200003000000C030080841
:103E00000838000007182020221E020008F80800C9
:103E10000008F808203F210101213F20000808F890
:103E2000080800000020203F2020000000000808B3
:103E3000F8080800C08080807F00000008F888C073
:103E400028180800203F20012638200008F8080024
:103E500000000000203F20202020300008F8F8005B
:103E6000F8F80800203F003F003F200008F830C06D
:103E70000008F808203F200007183F00E01008085D
:103E80000810E0000F10202020100F0008F808088C
:103E90000808F000203F210101010000E01008089F
:103EA0000810E0000F18242438504F0008F88888C4
:103EB00088887000203F2000030C302000708808A4
:103EC000080838000038202121221C00180808F8B2
:103ED000080818000000203F2000000008F8080033
:103EE0000008F808001F202020201F000878880004
:103EF00000C83808000007380E010000F80800F874
:103F00000008F800033C0700073C0300081868801D
:103F10008068180820302C03032C30200838C80093
:103F2000C83808000000203F2000000010080808E2
:103F3000C83808002038262120201800000000FE84
:103F4000020202000000007F40404000000C30C030
:103F500000000000000000010638C000000202025C
:103F6000FE000000004040407F000000000004020E
:103F70000202040000000000000000000000000039
:103F80000000000080808080808080800002020429
:103F90000000000000000000000000000000808021
:103FA000808000000019242222223F2008F800808F
:103FB00080000000003F112020110E000000008052
:103FC00080800000000E11202020110000000080E1
:103FD0008088F800000E112020103F200000808013
:103FE00080800000001F222222221300008080F027
:103FF000888888180020203F202000000000808052
:1040000080808000006B94949493600008F8008096
:1040100080800000203F210000203F2000809898F1
:10402000000000000020203F202000000000008051
:104030009898000000C08080807F000008F8000091
:1040400080808000203F24022D302000000808F8E6
:10405000000000000020203F2020000080808080A1
:1040600080808000203F20003F20003F8080008033
:1040700080800000203F210000203F200000808041
:1040800080800000001F202020201F0080800080F2
:104090008000000080FFA12020110E0000000080A1
:1040A00080808000000E112020A0FF808080800092
:1040B0008080800020203F212000010000008080BF
:1040C000808080000033242424241900008080E0B4
:1040D000808000000000001F202000008080000081
:1040E00000808000001F202020103F208080800062
:1040F0000080808000010E30080601008080008072
:10410000008080800F300C030C300F000080800096
:10411000808080000020312E0E31200080808000C1
:104120000080808080818E70180601000080808071
:10413000808080000021302C22213000000000000F
:10414000807C020200000000003F404000000000B0
:10415000FF00000000000000FF0000000002027CE1
:10416000800000000040403F000000000006010108
:104170000202040400000000000000000000000033
:10418000555555555555C53F7D6FEB0312D6D4BFD8
:104190005544880E55C1C93F3B8F68B52882A4BFDE
:1041A00088B20175E0EF493F09F7FD0DE13D023F9F
:1041B0004B2D8A1C273A03C0C88A599CE52A004027
:1041C00059018D1B6C06E6BF82922EB1C5B8B33F74
:1041D000F041000800000020E400000076270008FD
:1041E000D4420008E400002084050000862700086F
:1041F000000000000102030401020304060708098D
:104200000204060800000000000000000001000099
:10421000000000000000000000000000000000009E
:10422000000000000000000000000000000000008E
:1042300000000000000000009A99D94017B7513AD9
:104240000000803F000000000000000000000000AF
:10425000000000001C0100203C0100205C01002047
:104260007C0100209C010020BC010020DC0100201A
:10427000FC01002000000000000000000000000021
:10428000340200200AD7A33C000000000000000018
:10429000000000006F12833A0C020B3F0AD7A33CC8
:1042A0000000000000000000000000006F12833AD0
:1042B0000C020B3F0AD7A33C0000000000000000E6
:1042C000000000006F12833A0C020B3F0000000058
:0442D00000000000EA
:04000005080000ED02
:00000001FF
